:100000000C947B000C94A3000C94A3000C94330973
:100010000C9433090C9433090C94A3000C94A300A2
:100020000C94A3000C94A3000C94A3000C94A300C4
:100030000C94A3000C94A3000C94A3000C94A300B4
:100040000C94E9080C94A3000C94B7080C94910844
:100050000C94A3000C94A3000C94A3000C94A30094
:100060000C94A3000C94A3004E414E494E495459A0
:10007000494E46CDCCCC3D0AD7233C17B7D1387773
:10008000CC2B329595E6241FB14F0A000020410089
:1000900000C84200401C4620BCBE4CCA1B0E5AAED3
:1000A000C59D740000000800020100000304070061
:1000B0000000000000000000000000250028002BC8
:1000C0000000000000240027002A000404040404A7
:1000D00004040402020202020203030303030301F5
:1000E00002040810204080010204081020010204CC
:1000F000081020009A0911241FBECFEFD8E0DEBF00
:10010000CDBF24E0A8E4B2E001C01D92A83DB20733
:10011000E1F712E0A0E0B1E0EAE5F3E202C0059009
:100120000D92A834B107D9F710E0CBE7D0E004C0B6
:100130002197FE010E947F11CA37D107C9F70E949B
:10014000150A0C94AB110C94000090E0FC01E152F4
:10015000FF4F249185539F4FFC018491882399F090
:1001600090E0880F991FFC01EF53FF4FA591B491C8
:10017000FC01E954FF4F859194918FB7F894EC916D
:10018000E22BEC938FBF0895AF92BF92CF92DF9294
:10019000EF92FF920F931F93CF93DF936C017B013C
:1001A0008B01040F151FEB015E01AE18BF08C017CD
:1001B000D10759F06991D601ED91FC910190F08140
:1001C000E02DC6010995892B79F7C501DF91CF9103
:1001D0001F910F91FF90EF90DF90CF90BF90AF9065
:1001E0000895FC01538D448D252F30E0842F90E03D
:1001F000821B930B541710F0CF9608950197089522
:10020000FC01918D828D981761F0A28DAE0FBF2FEA
:10021000B11D5D968C91928D9F5F9F73928F90E040
:1002200008958FEF9FEF0895FC01918D828D9817AF
:1002300031F0828DE80FF11D858D90E008958FEFEC
:100240009FEF0895FC01918D228D892F90E0805CB5
:100250009F4F821B91098F739927089583E592E040
:100260000E94220121E0892B09F420E0822F0895C9
:1002700080E090E0892B29F00E942E0181110C94DE
:1002800000000895FC01A48DA80FB92FB11DA35A39
:10029000BF4F2C91848D90E001968F739927848FA6
:1002A000A689B7892C93A089B1898C9183708064C9
:1002B0008C93938D848D981306C00288F389E02D6A
:1002C00080818F7D80830895EF92FF920F931F931B
:1002D000CF93DF93EC0181E0888F9B8D8C8D9813F9
:1002E0001AC0E889F989808185FF15C09FB7F89405
:1002F000EE89FF896083E889F98980818370806451
:1003000080839FBF81E090E0DF91CF911F910F919B
:10031000FF90EF900895F62E0B8D10E00F5F1F4FAA
:100320000F731127E02E8C8D8E110CC00FB607FCB9
:10033000FACFE889F989808185FFF5CFCE010E9447
:100340004201F1CFEB8DEC0FFD2FF11DE35AFF4F72
:10035000F0829FB7F8940B8FEA89FB8980818062D5
:10036000CFCFCF93DF93EC01888D8823B9F0AA8992
:10037000BB89E889F9898C9185FD03C0808186FD60
:100380000DC00FB607FCF7CF8C9185FFF2CF8081AF
:1003900085FFEDCFCE010E944201E9CFDF91CF91E1
:1003A000089590E0FC01ED55FF4F2491FC01E152CE
:1003B000FF4F3491FC01E553FF4FE491EE23C9F068
:1003C000222339F0233001F1A8F4213019F1223031
:1003D00029F1F0E0EE0FFF1FE954FF4FA591B49112
:1003E0008FB7F894EC91611126C030953E233C9371
:1003F0008FBF08952730A9F02830C9F0243049F77D
:10040000809180008F7D03C0809180008F778093E2
:100410008000DFCF84B58F7784BDDBCF84B58F7D3F
:10042000FBCF8091B0008F778093B000D2CF8091C6
:10043000B0008F7DF9CF3E2BDACFCF93DF93FC0155
:100440002381222329F1EC0184810E94A5008D8162
:100450000E94A5008B81843011F0883099F48E8140
:100460000E94A5008F810E94A5008FA58F3F81F07B
:100470000E94A5006EA581E068278FA5DF91CF912E
:100480000C94D101833011F0863079F78E81EBCF57
:10049000DF91CF910895CF93DF93FC012381222335
:1004A000A1F0EC010190F081E02D0480F581E02DB8
:1004B00060E009958FA58F3F41F00E94A5006EA5D1
:1004C0008FA5DF91CF910C94D101DF91CF91089549
:1004D000DC01ED91FC912481358147705527662719
:1004E000772741505109610971094730510561056C
:1004F000710560F4FA01E158FD4F0C947F118902F7
:100500008B028D028F0291029302950261E0F90144
:10051000099465E0FCCF64E0FACF66E0F8CF62E0D2
:10052000F6CF6AE0F4CF68E0F2CF69E0F0CFCF9386
:10053000DF93EC01CB01BA0126E030E040E050E06F
:100540000E946011623071058105910589F16CF49A
:100550006115710581059105D1F061307105810545
:100560009105F9F0DF91CF9108956430710581050F
:10057000910561F124F1653071058105910591F7CF
:10058000E881F9810480F581E02D66E006C0E8810C
:10059000F9810480F581E02D64E0CE01DF91CF91F7
:1005A0000994E881F9810480F581E02D65E0F5CFBB
:1005B000E881F9810480F581E02D61E0EECFE881EA
:1005C000F9810480F581E02D63E0E7CFE881F981CE
:1005D0000480F581E02D62E0E0CFDC01ED91FC913B
:1005E0000480F581E02D4370552766277727423038
:1005F00051056105710571F04330510561057105C3
:1006000059F0413051056105710511F065E009941B
:1006100066E0FDCF6AE0FBCF69E0F9CFCF93DF93CF
:10062000EC01CB01BA0123E030E040E050E00E9451
:100630006011613071058105910599F06230710595
:1006400081059105A9F0672B682B692BC1F4E8811E
:10065000F9810480F581E02D64E0CE01DF91CF9136
:100660000994E881F9810480F581E02D61E0F5CFFE
:10067000E881F9810480F581E02D62E0EECFDF9121
:10068000CF910895DC01ED91FC910480F581E02D7E
:10069000437055276627772742305105610571055C
:1006A00071F0433051056105710559F04130510534
:1006B0006105710511F062E0099463E0FDCF61E02E
:1006C000FBCF60E0F9CFCF93DF93EC01E881F981B4
:1006D0000480F581E02D8A8160E0811162E0CE0125
:1006E0000995E881F9810480F581E02D8A8161E036
:1006F000811163E0CE0109958CA59DA582309105FD
:1007000038F0880F991F880F991F05970197F1F707
:10071000E881F9810480F581E02D8A8160E0811112
:1007200062E0CE01DF91CF910994CF93DF93EC018A
:1007300020E030E0A9016C897D898E899F890E9423
:10074000D91018162CF4E8A9F9A9DF91CF910994D2
:10075000EAA9FBA9FACFCF92DF92EF92FF920F9313
:100760001F93CF93DF93DC011396CC91C43039F003
:10077000C83059F1C33019F0C63049F1C2E08C01DC
:100780000C5F1F4FF12CE12CC62ED12CD1E0F801CB
:100790006481C6010E2C02C0959587950A94E2F7F4
:1007A00080FD6D270F5F1F4F80810E94D101BFEF39
:1007B000EB1AFB0AEC1658F3DF91CF911F910F91C2
:1007C000FF90EF90DF90CF900895C4E0D8CFC3E0C2
:1007D000D6CFDC011396EC911397E93008F038C0BE
:1007E000F0E0EB50FC4F0C947F11FE0304040A046C
:1007F0001004160428041C0428042204ED91FC9122
:100800000084F185E02D0994ED91FC910284F3853B
:10081000E02DF9CFED91FC910484F585E02DF3CF27
:10082000ED91FC910684F785E02DEDCFED91FC91E3
:100830000088F189E02DE7CFED91FC910288F389E2
:10084000E02DE1CFED91FC910488F589E02DDBCF1F
:1008500008954F925F926F927F928F929F92AF9284
:10086000BF92CF92DF92EF92FF920F931F93CF939D
:10087000DF93EC01C888D988EA88FB888C859D8540
:10088000AE85BF85C81AD90AEA0AFB0A6C897D8938
:100890008E899F899B01AC010E94B20E4B015C01C5
:1008A0006C8D7D8D8E8D9F8D9B01AC010E94C50F3F
:1008B0009B01AC01C501B4010E9431100E94A3103C
:1008C000C114D104E104F10409F0B1C06230710532
:1008D000810591050CF0CBC01CA21DA21EA21FA277
:1008E0001C8A1D8A1E8A1F8A1CAA1DAA1EAA1FAA4C
:1008F000DF91CF911F910F91FF90EF90DF90CF90FC
:10090000BF90AF909F908F907F906F905F904F902F
:1009100008951016110612061306B4F46C157D0521
:100920008E059F051CF42A812111A1C09B01AC01F9
:1009300088279927DC01821B930BA40BB50B8CAB8A
:100940009DABAEABBFAB93C00115110521053105C1
:1009500009F48DC06C157D058E059F050CF087C0D0
:100960008A81882309F483C03095209510950195DC
:100970001F4F2F4F3F4F0CAB1DAB2EAB3FAB77C084
:10098000011511052105310509F471C08824992448
:1009900054018C189D08AE08BF08681579058A05B2
:1009A0009B050CF064C08A81811161C0DDCFCCACA5
:1009B000DDACEEACFFACA7019601C701B6010E9409
:1009C000C50F2B013C01C501B4010E94530E20E06C
:1009D00030E040E850E40E94B20E20E030E040E811
:1009E0005FE30E94C50F9B01AC01C301B2010E94ED
:1009F00031109B01AC01C701B6010E94C40F3B013D
:100A00006C01FE01E05CFF4FE080F1800281138108
:100A10009701A8010E94D910181614F473018601D9
:100A2000C701D8018CAF9DAFAEAFBFAF3AC00CA924
:100A30001DA92EA93FA91C141D041E041F040CF49B
:100A400068CF10161106120613060CF099CF002776
:100A5000112798010C191D092E093F09601771070C
:100A6000820793070CF062CF2A8121115FCF8CA8F7
:100A70009DA8AEA8BFA881149104A104B10409F0F7
:100A800096CF88AD99ADAAADBBAD8CAF9DAFAEAFE3
:100A9000BFAF81E01C141D041E041F040CF080E095
:100AA0008A833FEF831A930AA30AB30A8CAA9DAAEA
:100AB000AEAABFAACCACDDACEEACFFACC701B601B0
:100AC0000E94AA106CA37DA38EA39FA3A7019601E9
:100AD00060E074E284E799E40E9431106C8B7D8BB6
:100AE0008E8B9F8B2A81211103CF90586C8B7D8B2D
:100AF0008E8B9F8BFDCEFC0101900020E9F7319792
:100B0000AF01481B590BBC0183E592E00C94C40073
:100B10008F929F92AF92BF920F931F93CF93DF93C9
:100B2000CDB7DEB7A1970FB6F894DEBF0FBECDBF2D
:100B300019A2423008F44AE08E010F5D1F4F842E47
:100B4000912CB12CA12CA50194010E943E11E62FFD
:100B5000B901CA01EA30F4F4E05DD801EE938D01E9
:100B6000232B242B252B79F790E080E0109719F0A8
:100B7000CD010E947B05A1960FB6F894DEBF0FBE93
:100B8000CDBFDF91CF911F910F91BF90AF909F90FC
:100B90008F900895E95CE1CFCF93DF930E947B05AE
:100BA000EC018CE291E00E947B058C0F9D1FDF9190
:100BB000CF9108958FE291E00E94CC058EE391E001
:100BC0000C94CC05CF92DF92EF92FF92CF93DF93FC
:100BD0006C01990FEE08FF08F7FE1FC06DE283E578
:100BE00092E00E946401EC0166277727CB016C1923
:100BF0007D098E099F094AE00E948805C80FD91F08
:100C00008CE291E00E947B058C0F9D1FDF91CF91BC
:100C1000FF90EF90DF90CF9008954AE0C701B601B2
:100C20000E948805EC01ECCF8F929F92AF92BF9209
:100C3000CF92DF92EF92FF920F931F93CF93DF93A8
:100C400048E154E063E174E090E080E00E94AC0C85
:100C5000009781F484E491E0DF91CF911F910F918F
:100C6000FF90EF90DF90CF90BF90AF909F908F90CC
:100C70000C94CC050E948E0C8C0197FF13C083E668
:100C800091E00E947B05C801DF91CF911F910F91E8
:100C9000FF90EF90DF90CF90BF90AF909F908F909C
:100CA0000C94E20583E791E00E947B05C8010E9455
:100CB000E20548E154E063E174E090E080E00E94E6
:100CC000AC0C009719F487E791E0C6CF0E948A0C1C
:100CD0006B017C0120E030E0A9010E944C0E8111E3
:100CE00003C081EA91E0B8CF20E030E040E052E478
:100CF000C701B6010E94B20E21EC3AEC41E350E488
:100D00000E94B20E6B017C0184E4809FE001819F10
:100D1000D00D1124C051DD4FC701B6010E94A310B0
:100D20000C851D852E853F85DC01CB01800F911F31
:100D3000A21FB31F088919892A893B898017910747
:100D4000A207B30739F0888B998BAA8BBB8BCE0196
:100D50000E9429048DEC91E00E947B05A701960179
:100D6000C701B6010E942411882339F085ED91E076
:100D70000E947B0581EE91E06FCF46015701E89418
:100D8000B7F82FEF3FEF4FE75FE7C501B4010E94CF
:100D9000241181110DC02FEF3FEF4FE75FE7C50131
:100DA000B4010E944C0E18161CF489ED91E0E0CFBE
:100DB0002FEF3FEF4FE75FE4C701B6010E94D91064
:100DC00018161CF48DED91E0D3CF2FEF3FEF4FE7D6
:100DD0005FECC701B6010E944C0E87FDF3CF20E007
:100DE00030E0A901C701B6010E944C0E87FF09C07F
:100DF0006DE283E592E00E946401F7FAF094F7F85F
:100E0000F0942AE037ED43EA5BE3C701B6010E94A4
:100E1000C50F4B015C010E94AA106B017C010E946E
:100E2000510E9B01AC01C501B4010E94C40F4B01DE
:100E30005C014AE0C701B6010E9488056EE283E5C5
:100E400092E00E94640120E030E040E251E4C501FC
:100E5000B4010E94B20E4B015C010E94AA106B010A
:100E6000F12CE12C4AE0C701B6010E948805C701B8
:100E7000B6010E94510E9B01AC01C501B4010E9454
:100E8000C40F20E030E040E251E40E94B20E0E9424
:100E9000AA1090E080E04AE00E9488056BCF4F9254
:100EA0005F926F927F92BF92CF92DF92EF92FF920A
:100EB0000F931F93CF93DF9348E154E063E174E015
:100EC00090E080E00E94AC0C009709F4A4C00E945E
:100ED0008E0CBC01990F880B990B0E94530E6B016D
:100EE0007C0120E030E0A9010E944C0E882309F427
:100EF00081C02601370177FA709477F8709420E06A
:100F000030E0A901C701B6010E944C0E87FF6DC0F9
:100F1000142D052DB62CD72CC0EFD2E0212F302F69
:100F20004B2D5D2D688D798D8A8D9B8D0E944C0E89
:100F3000882309F445C0812F902FAB2DBD2D888FBC
:100F4000998FAA8FBB8F7E0180E4E80EF11C212FC0
:100F5000302F4B2D5D2D60E074E284E799E40E9410
:100F60003110F70160837183828393838CA99DA9DB
:100F7000AEA9BFA9181619061A061B060CF56C892E
:100F80007D898E899F899B01AC010E94B20E2B0145
:100F90003C016C8D7D8D8E8D9F8D9B01AC010E94DF
:100FA000C50F9B01AC01C301B2010E9431100E9428
:100FB000A3106CAB7DAB8EAB9FABCE010E9429041E
:100FC000CC5BDF4FF4E0C030DF0709F0A7CFDF9143
:100FD000CF911F910F91FF90EF90DF90CF90BF9036
:100FE0007F906F905F904F9008951C2D0D2DBE2C1B
:100FF000DF2C92CF8AEE91E0DF91CF911F910F917C
:10100000FF90EF90DF90CF90BF907F906F905F90B8
:101010004F900C94CC0582E292E0EECF4F925F921B
:101020006F927F928F929F92AF92BF92CF92DF92F8
:10103000EF92FF92CF93DF93EC016A017B0120E0F6
:1010400030E0A901CB01B6010E944C0E87FF04C01D
:10105000F7FAF094F7F8F0948C8C9D8CAE8CBF8CE2
:10106000A7019601C501B4010E944C0E882309F422
:1010700049C06CA97DA98EA99FA90E94530E2B017E
:101080003C01A7019601C501B4010E9431109B01EA
:10109000AC01C301B2010E94B20E0E94A3106CAB5E
:1010A0007DAB8EAB9FABA701960160E070E080E066
:1010B00090E40E9431100E94E41026E53EE04DE2EB
:1010C0005FE30E94B20E20E034E244E759E40E945C
:1010D000B20E68AF79AF8AAF9BAFCC8EDD8EEE8E4D
:1010E000FF8ECE01DF91CF91FF90EF90DF90CF90F8
:1010F000BF90AF909F908F907F906F905F904F9038
:101100000C942904DF91CF91FF90EF90DF90CF9066
:10111000BF90AF909F908F907F906F905F904F9017
:1011200008951F920F920FB60F9211242F933F93A1
:101130004F935F936F937F938F939F93AF93BF93DF
:10114000EF93FF9383E592E00E944201FF91EF91BC
:10115000BF91AF919F918F917F916F915F914F91CF
:101160003F912F910F900FBE0F901F9018951F92D7
:101170000F920FB60F9211242F938F939F93EF939B
:10118000FF93E0916302F09164028081E091690233
:10119000F0916A0282FD1BC0908180916C028F5F8A
:1011A0008F7320916D02821741F0E0916C02F0E0A4
:1011B000ED5AFD4F958F80936C02FF91EF919F91B7
:1011C0008F912F910F900FBE0F901F9018958081D7
:1011D000F4CF1F920F920FB60F9211242F933F93CB
:1011E0008F939F93AF93BF9380914B0290914C024A
:1011F000A0914D02B0914E0230914A0223E0230F9C
:101200002D3758F50196A11DB11D20934A028093F8
:101210004B0290934C02A0934D02B0934E028091EA
:101220004F0290915002A0915102B091520201964A
:10123000A11DB11D80934F0290935002A0935102C3
:10124000B0935202BF91AF919F918F913F912F9197
:101250000F900FBE0F901F90189526E8230F02964F
:10126000A11DB11DD2CF1F920F920FB60F92112464
:101270000F900FBE0F901F901895CF93DF93EC0146
:1012800084E091E0998388836B831C861D861E868B
:101290001F86188A198A1A8A1B8A1C8A1D8A1E8A26
:1012A0001F8A80E090E0A0E8BFE3888F998FAA8F23
:1012B000BB8F1C8E1D8E1E8E1F8E88A399A3AAA382
:1012C000BBA31CA21DA21EA21FA261E070E07DA70D
:1012D0006CA73FEF3FA718A619A61AA61BA64C831A
:1012E0002D8324E02E8325E02F831EA61CAA1DAA91
:1012F0001EAA1FAA18AE19AE1AAE1BAE1CAE1DAEAA
:101300001EAE1FAEFE01E05CFF4F80839183A2837F
:10131000B3831A82188619861A861B86CE010E940C
:101320001D0240E050E060E87FE3CE01DF91CF9105
:101330000C940E08109256021092550288EE93E01B
:10134000A0E0B0E08093570290935802A093590216
:10135000B0935A028EE191E090935402809353022D
:1013600085EC90E09093600280935F0284EC90E0C3
:10137000909362028093610280EC90E0909364020B
:101380008093630281EC90E0909366028093650203
:1013900082EC90E0909368028093670286EC90E084
:1013A00090936A028093690210926C0210926D020F
:1013B00010926E0210926F021092D3041092D20417
:1013C00080E290E090931404809313048DE0809366
:1013D000150410921B0410921A04E1E0F4E081E17C
:1013E00094E011928E179F07E1F710921204109269
:1013F000110425E042E061E080EF92E00E943D09A7
:1014000026E043E061E084E393E00E943D0927E0A9
:1014100044E061E088E793E00E943D0923E042E078
:1014200064E08CEB93E00C943D09789484B5826081
:1014300084BD84B5816084BD85B5826085BD85B578
:10144000816085BD80916E00816080936E001092F6
:101450008100809181008260809381008091810071
:101460008160809381008091800081608093800002
:101470008091B10084608093B1008091B000816060
:101480008093B00080917A00846080937A0080918C
:101490007A00826080937A0080917A0081608093E4
:1014A0007A0080917A00806880937A001092C1005F
:1014B000C0EFD2E020E030E04AE754E4688D798D57
:1014C0008A8D9B8D0E944C0E8823C9F180E090E0AC
:1014D000AAE7B4E4888F998FAA8FBB8FFE01E05CE6
:1014E000FF4F80839183A283B3838CA99DA9AEA96A
:1014F000BFA9181619061A061B060CF56C897D89FA
:101500008E899F899B01AC010E94B20E6B017C0108
:101510006C8D7D8D8E8D9F8D9B01AC010E94C50FC2
:101520009B01AC01C701B6010E9431100E94A310BB
:101530006CAB7DAB8EAB9FABCE010E94290440E02B
:1015400050E06AEF74E4CE010E940E08CC5BDF4FDE
:1015500024E0C030D20709F0ADCF88E00E94A5009A
:1015600060E088E00E94D101E0916302F0916402A2
:1015700082E08083E0915F02F09160021082E0914E
:101580006102F09162028FEC808310926B02E09115
:101590006702F091680286E08083E0916502F09135
:1015A0006602808180618083E0916502F09166022D
:1015B000808188608083E0916502F091660280817D
:1015C00080688083E0916502F091660280818F7D62
:1015D000808320911A0430911B042A30310514F5C0
:1015E000C2E1C29FC001C39F900D112440E150E0B1
:1015F00064E472E0845E9B4F0E949C1180911A0407
:1016000090911B04C89FF001C99FF00D1124E05078
:10161000FC4F24E136E035A724A7019690931B04E4
:1016200080931A0420911A0430911B042A3031054A
:1016300014F5C2E1C29FC001C39F900D112440E187
:1016400050E066E472E0845E9B4F0E949C118091A2
:101650001A0490911B04C89FF001C99FF00D11243A
:10166000E050FC4F2FE437E035A724A70196909374
:101670001B0480931A048AED95E09093D104809323
:10168000D0048EE391E00E94CC0561E1E62E64E097
:10169000F62E72E1772EE0E0CE2EE0E0DE2E809195
:1016A000D2049091D304892B09F47DC08091D20497
:1016B0009091D304019709F4FFC0C0EFD2E08CA150
:1016C0009DA1AEA1BFA1892B8A2B8B2B09F458C0F9
:1016D0003FB7F89480914F0290915002A09151022F
:1016E000B091520226B5A89B05C02F3F19F0019674
:1016F000A11DB11D3FBFBA2FA92F982F88274C01DC
:101700005D01820E911CA11CB11C42E0880C991C49
:10171000AA1CBB1C4A95D1F788A599A5AAA5BBA56B
:10172000B501A401481B590B6A0B7B0B8CA19DA131
:10173000AEA1BFA1481759076A077B0708F18C853E
:101740009D85AE85BF852A81222309F4DFC00196DD
:10175000A11DB11D8C879D87AE87BF874C855D8598
:101760006E857F85E881F9810680F781E02DCE01C5
:10177000099588A699A6AAA6BBA6CE010E9429040F
:10178000CC5BDF4FB4E0C030DB0709F098CFC11469
:10179000D10409F484CF0E942E01882309F47FCF5D
:1017A0000E9400007CCF83E592E00E94220118167F
:1017B00019060CF07BCF8091D2049091D304892B31
:1017C00009F08AC083E592E00E9400018093000442
:1017D0009091000480911504981346C01092120451
:1017E0001092110448E154E063E174E081E094E078
:1017F0000E94AC0C8C019093170480931604892BE3
:1018000009F45BCFA0901A04B0901B0450E0852E21
:1018100054E0952ED0E0C0E0CA15DB050CF06AC09C
:10182000B401645E7F4F40E150E0C8010E948E1118
:10183000B2E18B0E911C892B09F05AC07C9EF001FD
:101840007D9EF00D1124E050FC4F04A4F5A5E02D81
:101850000995E1E0F4E0119224E0E131F207D9F7D3
:101860001092120410921104C09100048C2F0C2EBF
:10187000000C990B0E948711892B09F410CF8091DD
:101880001104909112049C012F5F3F4F309312047A
:101890002093110480509C4FDC011196CC93F901E8
:1018A000E050FC4F1182203131050CF4F8CE10923B
:1018B000120410921104F3CE8091D4049091D504B7
:1018C000DC01ED91FC910084F185E02D099518165D
:1018D00019060CF470CFF1CE8091D4049091D50408
:1018E000DC01ED91FC910284F385E02D09956ECF2A
:1018F000219692CFE091D004F091D1040995E1E0D6
:10190000F4E01192EE16FF06E1F7AACF0197A109C4
:10191000B10920CF662777270C94DB0CFC018827C0
:101920009927E89421912032E9F3293010F02E30E4
:10193000C8F32B3241F02D3239F4689404C00E9470
:10194000D30C820F911D219120532A30C0F31EF435
:10195000909581959F4F0895FA01A191B0810097CC
:1019600019F41097E1F0CD01DC01CD010D900020BC
:1019700011F4C00113C0FB012191222319F020159D
:10198000D9F7F3CFFB012191201519F41E9211967E
:1019900006C02223C1F70D900020A1F7D001FA0163
:1019A000A193B08308957AE0979F902D879F802D13
:1019B000910D11240895B0E0A0E0E1EEFCE00C945C
:1019C000840F5C017B016115710519F0DB018D93BA
:1019D0009C9385010F5F1F4FF501D0818D2F90E003
:1019E0000E942B0E6C01892BB9F5DD32B9F50F5F22
:1019F0001F4FD5011196DC91C1E05801F1E0AF1AFB
:101A0000B10843E050E060E770E0C5010E94340E89
:101A1000892B69F5680182E0C80ED11C45E050E0D1
:101A20006BE670E0C6010E94340E892B21F4680138
:101A300097E0C90ED11CE114F10419F0D701CD9241
:101A4000DC9260E070E080E89FEFC111FFC060E0D1
:101A500070E080E89FE7FAC05801BBCFDB3229F481
:101A600085010E5F1F4FF501D181C0E0C6CF43E075
:101A700050E068E670E0C5010E94340E892BE9F061
:101A8000F80110E000E020E030E0A9015F01B0EDD6
:101A90008B2E8D0E89E08815C8F19C2E689491F8E4
:101AA0008C2F8870C2FF16C0811102C00F5F1F4FBC
:101AB0003196D501DC91C92DE9CFE114F10429F06B
:101AC0000E5F1F4FF7011183008360E070E080EC30
:101AD0009FE7BCC0882311F001501109A5E0B0E0D8
:101AE0000E94730F9B01AC01220F331F441F551F2F
:101AF000280D311D411D511D283999E93907490724
:101B000099E15907A8F2C6609C2ED2CFAEEF8A1297
:101B100006C0C3FD3CC09C2E689493F8C9CFDF7DFE
:101B2000D534A9F580818D3239F4C061DF01129678
:101B3000818162E070E006C0DF018B32C1F3119653
:101B400061E070E080535D01A61AB70A8A30F8F4AC
:101B5000E0E8CE16ECE0DE065CF4B601660F771F17
:101B6000660F771FC60ED71ECC0CDD1CC80ED11C0D
:101B70005D01FFEFAF1ABF0A8C9180538A30A8F144
:101B8000C4FF03C0D194C194D1080C0D1D1DC1FF29
:101B900009C0E114F10431F081E0A81AB108D701BD
:101BA000AD92BC92CA01B9010E94510EC370C330FC
:101BB00009F490584B015C0120E030E0A9010E943B
:101BC0004C0E882309F440C0CFE9D0E017FF05C0D0
:101BD000119501951109C7E8D0E06E01B8E1CB1A63
:101BE000D10880E2E82EF12C0FC0D501B1CFFE0163
:101BF00025913591459154910E191F09C501B401E4
:101C00000E94B20E4B015C01D501C4010E151F05E7
:101C100074F72497F594E794CC16DD06A9F78A2F7C
:101C2000880F8B2F881F8F3F49F020E030E0A901FB
:101C3000C501B4010E944C0E811106C082E290E001
:101C40009093D7048093D604C501B401CDB7DEB715
:101C5000ECE00C94A00F91110C941F0F803219F03E
:101C600089508550C8F70895FB01DC014150504070
:101C700088F08D9181341CF08B350CF4805E659179
:101C800061341CF06B350CF4605E861B611171F3DE
:101C9000990B0895881BFCCF0E948E0E08F481E0FA
:101CA0000895E89409C097FB3EF49095809570954F
:101CB00061957F4F8F4F9F4F9923A9F0F92F96E998
:101CC000BB279395F695879577956795B795F1110D
:101CD000F8CFFAF4BB0F11F460FF1BC06F5F7F4FAA
:101CE0008F4F9F4F16C0882311F096E911C07723BC
:101CF00021F09EE8872F762F05C0662371F096E8C5
:101D0000862F70E060E02AF09A95660F771F881F93
:101D1000DAF7880F9695879597F90895990F000837
:101D2000550FAA0BE0E8FEEF16161706E807F907AD
:101D3000C0F012161306E407F50798F0621B730B48
:101D4000840B950B39F40A2661F0232B242B252BC9
:101D500021F408950A2609F4A140A6958FEF811D6C
:101D6000811D08950E94C50E0C94390F0E942B0FFF
:101D700038F00E94320F20F0952311F00C94220FBE
:101D80000C94280F11240C946D0F0E944A0F70F3CD
:101D9000959FC1F3950F50E0551F629FF001729F10
:101DA000BB27F00DB11D639FAA27F00DB11DAA1F1F
:101DB000649F6627B00DA11D661F829F2227B00D6C
:101DC000A11D621F739FB00DA11D621F839FA00DF7
:101DD000611D221F749F3327A00D611D231F849F47
:101DE000600D211D822F762F6A2F11249F5750409E
:101DF0009AF0F1F088234AF0EE0FFF1FBB1F661F19
:101E0000771F881F91505040A9F79E3F510580F0E1
:101E10000C94220F0C946D0F5F3FE4F3983ED4F3C3
:101E2000869577956795B795F795E7959F5FC1F785
:101E3000FE2B880F911D9695879597F90895992700
:101E40008827089597F99F6780E870E060E008951B
:101E50009FEF80EC089500240A94161617061806C2
:101E60000906089500240A9412161306140605069E
:101E70000895092E0394000C11F4882352F0BB0F2F
:101E800040F4BF2B11F460FF04C06F5F7F4F8F4F92
:101E90009F4F089557FD9058440F551F59F05F3FCD
:101EA00071F04795880F97FB991F61F09F3F79F07C
:101EB00087950895121613061406551FF2CF4695FE
:101EC000F1DF08C0161617061806991FF1CF869580
:101ED0007105610508940895E894BB276627772764
:101EE000CB0197F908950E94B50FA59F900DB49F5F
:101EF000900DA49F800D911D112408952F923F9263
:101F00004F925F926F927F928F929F92AF92BF9209
:101F1000CF92DF92EF92FF920F931F93CF93DF93B5
:101F2000CDB7DEB7CA1BDB0B0FB6F894DEBF0FBE12
:101F3000CDBF09942A88398848885F846E847D845F
:101F40008C849B84AA84B984C884DF80EE80FD8061
:101F50000C811B81AA81B981CE0FD11D0FB6F894D7
:101F6000DEBF0FBECDBFED010895A29FB001B39FAC
:101F7000C001A39F700D811D1124911DB29F700D92
:101F8000811D1124911D08955058BB27AA270E9436
:101F9000DC0F0C94390F0E942B0F38F00E94320F87
:101FA00020F039F49F3F19F426F40C94280F0EF416
:101FB000E095E7FB0C94220FE92F0E944A0F58F39B
:101FC000BA17620773078407950720F079F4A6F51E
:101FD0000C946C0F0EF4E0950B2EBA2FA02D0B0174
:101FE000B90190010C01CA01A0011124FF27591B5E
:101FF00099F0593F50F4503E68F11A16F040A22F64
:10200000232F342F4427585FF3CF469537952795D4
:10201000A795F0405395C9F77EF41F16BA0B620BD3
:10202000730B840BBAF09150A1F0FF0FBB1F661F1A
:10203000771F881FC2F70EC0BA0F621F731F841F5D
:1020400048F4879577956795B795F7959E3F08F083
:10205000B0CF9395880F08F09927EE0F9795879545
:1020600008950E9445100C94390F0E94320F58F0C9
:102070000E942B0F40F029F45F3F29F00C94220FAF
:1020800051110C946D0F0C94280F0E944A0F68F3A5
:102090009923B1F3552391F3951B550BBB27AA2721
:1020A00062177307840738F09F5F5F4F220F331F5B
:1020B000441FAA1FA9F335D00E2E3AF0E0E832D023
:1020C00091505040E695001CCAF72BD0FE2F29D026
:1020D000660F771F881FBB1F261737074807AB07F8
:1020E000B0E809F0BB0B802DBF01FF2793585F4F6D
:1020F0003AF09E3F510578F00C94220F0C946D0F2E
:102100005F3FE4F3983ED4F3869577956795B7954E
:10211000F7959F5FC9F7880F911D9695879597F959
:102120000895E1E0660F771F881FBB1F62177307D2
:102130008407BA0720F0621B730B840BBA0BEE1FE7
:1021400088F7E09508950E94AA106894B1110C9444
:102150006D0F08950E94520F88F09F5798F0B92F85
:102160009927B751B0F0E1F0660F771F881F991FCC
:102170001AF0BA95C9F714C0B13091F00E946C0FF3
:10218000B1E008950C946C0F672F782F8827B85F03
:1021900039F0B93FCCF3869577956795B395D9F724
:1021A0003EF490958095709561957F4F8F4F9F4F2E
:1021B00008950E948E0E08F48FEF089519F416F416
:1021C0000C94280F0C9429110E94520FB8F39923F4
:1021D000C9F3B6F39F57550B87FF0E9437110024B0
:1021E000A0E640EA900180585695979528F4805CC7
:1021F000660F771F881F20F026173707480730F42F
:10220000621B730B840B202931294A2BA695179446
:102210000794202531254A2758F7660F771F881F16
:1022200020F026173707480730F4620B730B840B36
:10223000200D311D411DA09581F7B901842F9158C2
:10224000880F9695879508950E948E0E880B990B9E
:1022500008959F3F31F0915020F4879577956795C9
:10226000B795880F911D9695879597F90895915088
:102270005040660F771F881FD2F70895A1E21A2EEB
:10228000AA1BBB1BFD010DC0AA1FBB1FEE1FFF1F1A
:10229000A217B307E407F50720F0A21BB30BE40B6A
:1022A000F50B661F771F881F991F1A9469F76095B1
:1022B0007095809590959B01AC01BD01CF0108956B
:1022C000052E97FB1EF400940E94771157FD07D04E
:1022D0000E943E1107FC03D04EF40C9477115095E8
:1022E0004095309521953F4F4F4F5F4F0895909502
:1022F0008095709561957F4F8F4F9F4F0895EE0F9A
:10230000FF1F0590F491E02D0994803209F091119E
:102310000C941F0F80528F55D8F70895FB01DC01F4
:102320004150504030F08D910190801919F40020F7
:10233000B9F7881B990B0895FB01DC01415050400F
:1023400048F001900D920020C9F701C01D92415044
:0A2350005040E0F70895F894FFCF25
:10235A00000000004B021D02AB03E903950363036F
:10236A0042030E03ED0297026802000000006401B6
:10237A00C400F100B1012201000114010D0A004E4E
:10238A006F74207265636F676E697A65640052655F
:10239A00616479004E6F74207265636F676E697A43
:1023AA0065643A2053746570706572204E756D626B
:1023BA006572004E6F74207265636F676E697A6525
:1023CA00643A00494420004E6F74207265636F6757
:1023DA006E697A65643A204E6F2068696567687429
:1023EA0020706172616D6574657220676976656EC9
:1023FA00004E6F74207265636F676E697A65643A1E
:10240A002048656967687420706172616D657465DA
:10241A0072206E6F7420706172736564006D6F76DE
:10242A00696E6720006E616E00696E66006F76667F
:10243A00002064656772656573004E6F742072656B
:10244A00636F676E697A65643A2056656C6F636973
:10245A00747920706172616D6574657220636F753D
:10246A006C64206E6F742067657420706172736586
:10247A0064004E6F74207265636F676E697A656473
:10248A003A204E6F2056656C6F63697479206769CC
:08249A0076656E004D0056004E
:00000001FF
